:1000000007C1000036C1000034C1000032C1000049
:1000100030C100002EC100002CC100002AC1000028
:1000200028C1000026C1000024C1000022C1000038
:1000300020C100001EC100001CC100001AC1000048
:1000400018C1000016C1000014C1000012C1000058
:1000500010C100000EC100000CC10000BCC40000B3
:1000600008C1000015C30000EAC2000002C1000080
:1000700000C10000FEC00000FCC00000FAC000008B
:10008000F8C00000F6C00000F4C00000F2C000009C
:10009000F0C00000EEC00000ECC00000E6C40000AC
:1000A000E8C00000E6C00000E4C00000E2C00000BC
:1000B000E0C00000DEC00000DCC00000DAC00000CC
:1000C000D8C00000D6C00000D4C00000D2C00000DC
:1000D000D0C00000CEC00000CCC00000CAC00000EC
:1000E000C8C00000AD03B0039F03A303A703E70349
:1000F000B403B803BE03C203C603CC03D003D403C6
:10010000E703DA03DE03E20300000A0B02090C0D29
:100110000E080703040100000000000000000000BA
:1001200000000000000000000000000000000000CF
:10013000000000001211100000000000000000008C
:1001400000000000000000000000000000000000AF
:100150002200250028002B002E003100340002016F
:100160000000050108010B01000021002400270008
:100170002A002D00300033000101000004010701B6
:100180000A0105050505070508080808020202021C
:100190000A0A080804040404010101010101010123
:1001A0000303030303030303040707070C0C0C0CEE
:1001B0000C0C0C0C020202020606060606060606D7
:1001C0000B0B0B0B0B0B0B0B010210202008081064
:1001D00020401020408002010201080402010102B7
:1001E0000408102040808040201008040201800490
:1001F00002018040201008040201080402010102EB
:100200000408102040800102040810204080E50C02
:1002100011241FBECFEFD1E2DEBFCDBF00E00CBF87
:1002200012E0A0E0B2E0E2E6FBE100E00BBF02C0BA
:1002300007900D92A635B107D9F724E0A6E5B2E004
:1002400001C01D92A73DB207E1F711E0C8E0D1E07F
:1002500000E006C021970109802FFE010E94810D58
:10026000C730D10780E00807A9F70E9477090C94EE
:10027000AF0DC6CEFC01918D828D981761F0828DF5
:10028000DF01A80FB11D5D968C91928D9F5F9F73CA
:10029000928F90E008958FEF9FEF0895FC01918D6C
:1002A000828D981731F0828DE80FF11D858D90E0D9
:1002B00008958FEF9FEF0895FC01918D228D892F76
:1002C00090E0805C9F4F821B91098F73992708955E
:1002D00087E593E0F1DF21E0892B09F420E0822F0C
:1002E0000895FC01848DDF01A80FB11DA35ABF4FF3
:1002F0002C91848D90E001968F739927848FA68925
:10030000B7892C93A089B1898C9180648C93938D4B
:10031000848D981306C00288F389E02D80818F7D3B
:1003200080830895EF92FF920F931F93CF93DF93F3
:10033000EC0181E0888F9B8D8C8D981305C0E88936
:10034000F989808185FD23C0F62E0B8D10E00F5FAB
:100350001F4F0F731127E02E8C8DE8120BC00FB6C4
:1003600007FCFACFE889F989808185FFF5CFCE01B6
:10037000B8DFF2CF8B8DFE01E80FF11DE35AFF4F7E
:10038000F0820B8FEA89FB898081806207C0EE8949
:10039000FF896083E889F98980818064808381E0B6
:1003A00090E0DF91CF911F910F91FF90EF90089512
:1003B000CF93DF93EC01888D8823C1F0EA89FB8914
:1003C000808185FD05C0A889B9898C9186FD0EC004
:1003D0000FB607FCF5CF808185FFF2CFA889B989D8
:1003E0008C9185FFEDCFCE017CDFE8CFDF91CF91FF
:1003F000089580E090E0892B19F06ADF811125C013
:1004000080E090E0892B41F080E090E0892B21F0A2
:100410000E94000081111CC080E090E0892B41F017
:1004200080E090E0892B21F00E940000811113C030
:1004300080E090E0892BA1F080E090E0892B81F0B2
:100440000E94000081110AC008950E940000D8CFC8
:100450000E940000E1CF0E940000EACF0C9400004F
:1004600008953FB7F8948091A2029091A302A091C1
:10047000A402B091A50226B5A89B05C02F3F19F094
:100480000196A11DB11D3FBFBA2FA92F982F882714
:10049000820F911DA11DB11DBC01CD0142E0660F6F
:1004A000771F881F991F4A95D1F708952FB7F894A1
:1004B00060919E0270919F028091A0029091A10292
:1004C0002FBF089585ED8093BC008091BC0084FD12
:1004D000FCCF10923603089540917802262F30E029
:1004E000240F311D21323105DCF4209136032430F4
:1004F000C9F4FC0180E090E0861758F4309178024E
:100500002191DC01AA5ABD4FA30FB11D2C93019676
:10051000F3CF80917802680F6093780280E00895AD
:1005200081E0089582E008950895E091F7038091B5
:10053000F603E81730F4F0E0E95CFC4F808190E0CE
:1005400008958FEF9FEF08959091F7038091F60340
:10055000981750F4E92FF0E0E95CFC4F208130E07F
:100560009F5F9093F70302C02FEF3FEFC9010895FB
:100570008091F60390E02091F703821B9109089582
:10058000CF92DF92EF92FF920F931F93CF93DF935F
:100590007C01262F972F8A018091EF02882391F00A
:1005A000C62FD72F6E01C40ED51ECC15DD0569F000
:1005B0006991D701ED91FC910190F081E02DC70187
:1005C0001995F3CF642F822F87DFC801DF91CF9178
:1005D0001F910F91FF90EF90DF90CF900895CF93F0
:1005E000DF931F92CDB7DEB769832091EF022223FC
:1005F000D1F02091F403203240F021E030E0FC0102
:100600003383228380E090E014C08091F503E82FCB
:10061000F0E0E051FD4F998190838F5F8093F50367
:100620008093F40304C061E0CE01019655DF81E0C0
:1006300090E00F90DF91CF9108950E94890D1F9255
:100640000F920FB60F9211240BB60F922F933F9378
:100650004F935F936F937F938F939F93AF93BF93CA
:10066000EF93FF9387E593E03CDEFF91EF91BF911D
:10067000AF919F918F917F916F915F914F913F913A
:100680002F910F900BBE0F900FBE0F901F901895DB
:100690001F920F920FB60F9211240BB60F922F9349
:1006A0008F939F93EF93FF93E0916703F09168031B
:1006B0008081E0916D03F0916E0382FD12C0908104
:1006C000809170038F5F8F7320917103821751F0B7
:1006D000E0917003F0E0E95AFC4F958F809370032E
:1006E00001C08081FF91EF919F918F912F910F9089
:1006F0000BBE0F900FBE0F901F901895362F90E0F5
:10070000FC01E85FFE4F4491FC01E853FE4F249149
:10071000FC01EE57FE4F9491992309F46BC04423DA
:1007200009F455C050E0FA013197E231F10508F0C3
:100730004EC08827EE58FF4F8F4F0C94810D80914B
:1007400080008F7707C0809180008F7D03C08091EB
:100750008000877F809380003AC084B58F7702C085
:1007600084B58F7D84BD33C08091B0008F7703C086
:100770008091B0008F7D8093B00029C0809190005F
:100780008F7707C0809190008F7D03C0809190008B
:10079000877F809390001BC08091A0008F7707C057
:1007A0008091A0008F7D03C08091A000877F8093FF
:1007B000A0000DC0809120018F7707C0809120019B
:1007C0008F7D03C080912001877F80932001E92FD6
:1007D000F0E0EE0FFF1FE25BFE4FA591B4918FB7E3
:1007E000F894EC91311103C020952E2301C02E2BDB
:1007F0002C938FBF0895CF93DF9397FF03C09195FC
:1008000081959109EAE0F0E0BF010E946E0D282F6A
:10081000CB01BF010E946E0DAC0184E0440F551F57
:100820008A95E1F7422B69E087E086D3CFE0D0E0FC
:10083000CE010197F1F761E088E060DF2197F1F7E1
:1008400060E088E0DF91CF9159CFCF93DF93482FBD
:1008500066E084E071D3CFE0D0E0CE010197F1F7FC
:1008600061E085E04BDF2197F1F760E085E0DF9103
:10087000CF9144CFCF93DF93A0D38091F803909191
:10088000F9036AE070E00E946E0DEB01CB01B3DF6B
:10089000D7FF04C08DE7DF91CF91D7CFDF91CF9104
:1008A00008958F929F92AF92BF92CF92DF92EF9274
:1008B000FF926B017C01D5DD4B015C01C114D104B9
:1008C000E104F104E9F0CDDDDC01CB0188199909DF
:1008D000AA09BB09883E9340A105B10578F321E040
:1008E000C21AD108E108F10888EE880E83E0981E4C
:1008F000A11CB11CC114D104E104F10421F7DECF25
:10090000FF90EF90DF90CF90BF90AF909F908F902F
:100910000895CF92DF92EF92FF920F931F93CF93A0
:10092000DF9300E010E0EE24E394F12CCC24C39498
:10093000D12CA895C8015FDFE7012196C60101C04F
:10094000880FEA94EAF7809580DFC830D10514F06B
:10095000C1E0D0E060E971E080E090E0A2DF055FF7
:100960001F4F0E36110511F07E01E3CF60E971E0F3
:1009700080E090E096DF03E610E0CC24C394D12C15
:10098000A895C80138DF7E012FEFE21AF20AC601EE
:1009900001C0880FCA95EAF7809557DF88E0E8160E
:1009A000F1041CF0EE24E394F12C60E971E080E0A6
:1009B00090E077DF0B501109053F2FEF120711F080
:1009C000E701DECFDF91CF911F910F91FF90EF9064
:1009D000DF90CF9008951F920F920FB60F921124BF
:1009E0002F933F938F939F93AF93BF9380919E02DA
:1009F00090919F02A091A002B091A10230919D021E
:100A000023E0230F2D3720F40196A11DB11D05C051
:100A100026E8230F0296A11DB11D20939D0280930D
:100A20009E0290939F02A093A002B093A102809196
:100A3000A2029091A302A091A402B091A5020196F6
:100A4000A11DB11D8093A2029093A302A093A402C2
:100A5000B093A502BF91AF919F918F913F912F913C
:100A60000F900FBE0F901F9018951F920F920FB608
:100A70000F9211240BB60F922F933F934F935F93D6
:100A80006F937F938F939F93AF93BF93EF93FF9356
:100A90008091B900887F803609F49CC068F588325F
:100AA00009F45BC090F4803109F454C038F4882311
:100AB00009F4F6C0883009F44DC0F5C0883109F456
:100AC0004CC0803209F45DC0EEC0803409F468C0C7
:100AD00048F4803309F455C0883309F0E4C08093AA
:100AE0003403D8C0803509F44FC0883509F45DC09F
:100AF000883409F0D8C0D6C0883909F4C7C0A8F432
:100B0000883709F467C038F4883609F463C0803741
:100B100009F460C0C8C0883809F4B8C0803909F445
:100B20005FC0803809F0BFC05BC0803B09F486C05D
:100B300038F4803A09F466C0883A09F47FC0B3C03B
:100B4000803C09F4A7C0883C09F4A4C0883B09F4A0
:100B50008AC0A9C08091310310C090913303809165
:100B60003203981770F5E091330381E08E0F809384
:100B70003303F0E0E05FFC4F80818093BB0085ECA5
:100B800086C0809334038EC0E091330381E08E0FE2
:100B9000809333038091BB00F0E0E05FFC4F8083E3
:100BA00090913303809132036EC0E091330381E072
:100BB0008E0F809333038091BB00F0E0E05FFC4F29
:100BC00080838091350381116DC081E08093300373
:100BD00084EA61C083E08093360310929C02CFCFF9
:100BE00080919C02803208F051C0E0919C0281E02B
:100BF0008E0F80939C028091BB00F0E0E458FD4F83
:100C00008083BDCF85EC8093BC0010923603809129
:100C10009C02803230F4E0919C02F0E0E458FD4FF9
:100C2000108260919C0270E0E0917A02F0917B0268
:100C30008CE792E0199510929C0235C084E0809375
:100C400036031092790210927802E0917602F091C8
:100C50007702199580917802811105C081E0809317
:100C6000780210925602E091790281E08E0F809313
:100C70007902F0E0EA5AFD4F80818093BB009091A9
:100C8000790280917802981708F479CF85E88093EB
:100C9000BC0009C085EC8093BC001092360303C0F1
:100CA000109234030FDCFF91EF91BF91AF919F91B0
:100CB0008F917F916F915F914F913F912F910F9005
:100CC0000BBE0F900FBE0F901F9018951092360319
:100CD00081E0809335031092300361E084E10EDD02
:100CE00061E085E10BDDE9EBF0E080818E7F8083C0
:100CF00080818D7F808388E48093B80085E4809331
:100D0000BC0008952091F4039091CA04213208F0A8
:100D10004AC0809136038111FCCF32E03093360314
:100D200031E0309335033FEF3093340310923303B7
:100D300020933203A0EFB2E040E153E0FA013E2FEE
:100D4000341B321718F43D913193F9CF10923103CF
:100D500020913103990F922B90933103909130039E
:100D6000913061F410923003909131039093BB0065
:100D70009091BC0093FDF8CF95EC01C095EE909357
:100D8000BC00909136039230E1F3909134039F3F81
:100D900079F080913403803241F0809134038033C4
:100DA00031F084E005C081E003C082E001C083E04F
:100DB0001092F5031092F4031092EF020895CF926F
:100DC000DF92EF92FF920F931F93CF93DF936C010B
:100DD0007A018B01C0E0D0E0CE15DF0589F0D801A3
:100DE0006D918D01D601ED91FC910190F081E02D86
:100DF000C6011995892B11F47E0102C02196ECCF12
:100E0000C701DF91CF911F910F91FF90EF90DF907D
:100E1000CF900895909136039111FCCF613208F084
:100E200060E291E090933603909335032FEF209387
:100E3000340310923303260F20933203909331032F
:100E400090913103880F892B809331038091300377
:100E5000813061F410923003809131038093BB00A4
:100E60008091BC0083FDF8CF85EC01C085EE8093B6
:100E7000BC00809136038130E1F380913303861703
:100E800010F460913303A0E1B3E027E333E0F9010C
:100E90008E2F821B861718F48D918193F9CF1092B3
:100EA000F7036093F603862F0895E7E5F3E0A08942
:100EB000B18982E08C93A485B5851C92A685B785FF
:100EC0008FEC8C93108EA489B58986E08C93A289CF
:100ED000B3898C9180618C93A289B3898C9188604D
:100EE0008C93A289B3898C9180688C930288F38952
:100EF000E02D80818F7D8083089590E0FC01E85390
:100F0000FE4F2491FC01EE57FE4F8491882399F007
:100F100090E0880F991FFC01E859FE4FA591B4910C
:100F2000FC01E25BFE4F859194918FB7F894EC91B0
:100F3000E22BEC938FBF0895EF92FF920F931F93D4
:100F4000CF93DF93E82EF62EC7E0D0E0042F10E019
:100F500098010C2E02C0359527950A94E2F7B90145
:100F6000617077278E2DCADB61E08F2DC7DB60E0D3
:100F70008F2DC4DB219760F7DF91CF911F910F91E7
:100F8000FF90EF900895CF93DF934FEF69E087E0F4
:100F9000D3DFCFE0D0E0CE010197F1F761E088E048
:100FA000ADDB2197F1F760E088E0A8DB68EC70E04A
:100FB00080E090E0DF91CF9174CCCF92DF92EF92FE
:100FC000FF920F931F93CF93DF93CDB7DEB7A49714
:100FD0000FB6F894DEBF0FBECDBF8E010F5F1F4F5F
:100FE00080E2F80111928A95E9F7FF24F394F092D8
:100FF000EF028CE58093CA041092F5031092F4037B
:1010000081DEF092EF021092F5031092F40363E098
:101010008BEC94E0E4DA60E08BEC94E0E0DA64E0FE
:101020008BEC94E0DCDA6EDE8BEF98E10197F1F760
:1010300068E070E08CE590E0EDDE6E01F7E0CF0E49
:10104000D11C78018BEC94E07FDAF70181937F016A
:10105000EC15FD05B9F78BEC94E076DA7C018BECAE
:1010600094E072DA20E030E0382FE22AF32AF80127
:101070002FEF3FEF96E0900F9E1791F08191282778
:1010800088E0A9015695479520FF06C09A0161E0C6
:10109000262760EA362701C09A01815091F7ECCFEC
:1010A000E216F30611F080E017C08B8190E0982FD4
:1010B00088272C81820F911D2D8130E0322F22272D
:1010C0004E81240F311D3093F9032093F803909340
:1010D000FB038093FA0381E0A4960FB6F894DEBF79
:1010E0000FBECDBFDF91CF911F910F91FF90EF9079
:1010F000DF90CF900895CF93DF93C6EAD4E08AA122
:1011000091E09093EF028093CA041092F50310923D
:10111000F40360E08BEC94E062DAF4DD65E070E00B
:101120008AA19BA177DE8BEC94E00EDA8B878BECA7
:1011300094E00ADA8C878BEC94E006DA982F969587
:10114000969596959E70292F220F220F920F8F70E1
:10115000890F8A838BEC94E0F7D9982F9695969512
:1011600096959E70292F220F220F920F8F70890F54
:1011700089838BEC94E0E8D9982F9695969596956F
:101180009670292F220F220F920F8F70890F88835C
:10119000DF91CF9108958091C80491E09093EF0280
:1011A0008093CA041092F5031092F40365E08BEC6F
:1011B00094E015DAA7DD64E070E08091C8049091B6
:1011C000C90428DE8BEC94E0BFD9982F96959695AC
:1011D00096959670292F220F220F920F8F70890FEC
:1011E0008093A9048BEC94E0AFD987708093AA0414
:1011F0008BEC94E0A9D9982F991F9927991F909368
:10120000B30484FB992790F9990F292F220F220FFD
:10121000920F8F70890F8093AB048BEC94E094D97C
:10122000982F92959F708F702AE0929F800D1124C5
:101230008093AC0408956115710579F0FB0101906C
:101240000020E9F73197AF01461B570BDC01ED9108
:10125000FC910280F381E02D199480E090E00895E4
:101260004F925F926F927F92EF92FF920F931F9334
:10127000CF93DF93CDB7DEB7A1970FB6F894DEBF5B
:101280000FBECDBF7C01FA01CB0119A2223008F4B8
:101290002AE08E010F5D1F4F422E512C612C712CC4
:1012A000BF01A301920139D4F901CA01015011090A
:1012B0006A3014F4605D01C0695CD8016C93232B23
:1012C000242B252B69F7B801C701B5DFA1960FB60E
:1012D000F894DEBF0FBECDBFDF91CF911F910F916C
:1012E000FF90EF907F906F905F904F90089578946B
:1012F00084B5826084BD84B5816084BD85B582601B
:1013000085BD85B5816085BD80916E0081608093CB
:101310006E00109281008091810082608093810034
:101320008091810081608093810080918000816044
:10133000809380008091B10084608093B10080919F
:10134000B00081608093B0008091910082608093B2
:101350009100809191008160809391008091900034
:101360008160809390008091A10082608093A100B1
:101370008091A10081608093A1008091A000816094
:101380008093A0008091210182608093210180914F
:1013900021018160809321018091200181608093EF
:1013A000200180917A00846080937A0080917A0095
:1013B000826080937A0080917A00816080937A00C5
:1013C00080917A00806880937A001092C100109218
:1013D000E3021092E4021092E5021092E6021092EB
:1013E000B1021092B2021092B3021092B40260EDF8
:1013F00077E080E090E055DA87E593E09093E202B1
:101400008093E10252DD52D80091B1021091B202F4
:101410002091B3023091B402DC01CB01801B910B0F
:10142000A20BB30BC297A105B10530F463E070E0E5
:1014300080E090E036DAE7CF39D86093B10270935C
:10144000B2028093B3029093B40260E272E08091A2
:10145000E1029091E202EFDE6AE070E080E090E06D
:1014600020DA81E08093B5020FB6F894A8958091B8
:101470006000886180936000109260000FBE15DDEF
:1014800086E03BDD84E039DD85E037DD89E035DD70
:1014900087E033DD88E031DD3CDAECEFF3E080E03B
:1014A00090E02081211123C021E1289FE001299FA4
:1014B000D00D1124C450DC4F81E0888380EC97E28A
:1014C000A9E0B0E089839A83AB83BC838FEF9FEF61
:1014D0009E838D8389E894E09A8789870E945602CB
:1014E0006B877C878D879E87188A1F8605C001962B
:1014F00071968A309105A9F698E288E10FB6F894C2
:10150000A895809360000FBE9093600094E0292E10
:10151000312C23E0822E912C32E0E32EF12CCC24CE
:10152000C394D12C5AE0A52EB12C0E945602672BF1
:10153000682B692B09F09CC10E945602623071052C
:101540008105910508F094C137C00E94560260934E
:10155000B1027093B2028093B3029093B40262E33B
:1015600072E08091E1029091E20265DE6AE372E04E
:101570008091E1029091E2025EDE0E945602AB0190
:10158000BC012AE08091E1029091E20269DE6CE305
:1015900072E08091E1029091E2024DDE65E070E040
:1015A00080E090E07ED96AE070E080E090E079D958
:1015B0008091B5028111B5C10E9456022B013C01F8
:1015C00004E014E0CCEFD3E028812223D1F18B8515
:1015D0009C85AD85BE85B301A201481B590B6A0BE2
:1015E0007B0B89819A81AB81BC81481759076A07B7
:1015F0007B07E8F0213019F0223029F00FC0E9858F
:10160000FA8519950BC061E0F8018081811160E0D5
:10161000D8016C93F8013197808170D84B865C8635
:101620006D867E868F8598890196988B8F878D81B0
:101630009E8197FD06C02F853889281739070CF041
:10164000188261960F5E1F4FB4E0C63ADB0709F0BF
:10165000BBCFA89580917B00877F80937B00E0E4DF
:10166000E0937C0080917A00806480937A0080917E
:101670007A0086FDFCCF809178002091790090E07F
:10168000922B9093A7028093A6029C01235F334084
:101690002C30310538F48FE7D8D81092AF02109271
:1016A000AE0241C09C012F5833402F34310538F42D
:1016B0008FEBCBD8D092AF02C092AE0234C09C0167
:1016C0002F5E32402B38310538F48FEDBED8F092C2
:1016D000AF02E092AE0227C09C012E5032402C3C5B
:1016E000310538F48FEEB1D89092AF028092AE02FD
:1016F0001AC09C0122523140273D310538F487EF52
:10170000A4D83092AF022092AE020DC001978C3067
:10171000914048F48BEF99D885E0482E512C509297
:10172000AF024092AE028091AE029091AF02823041
:101730009105E9F07CF4009709F496C0019709F04F
:1017400093C03BDC8091FA039091FB03B501B2D1C9
:10175000CB0187C08430910509F47FC00CF479C0B7
:10176000059709F081C017DD8091A90479C0C09167
:10177000AC02D091AD020091A8021091A902CA302A
:10178000D105DCF48091AA029091AB02892B09F07B
:101790004FC00115110509F04BC0ADDC8091A604C6
:1017A00090E029D868EC70E080E090E07AD821964B
:1017B000D093AD02C093AC0258C02A9709F038C04C
:1017C000C091AA02D091AB02CA30D105B4F4011580
:1017D000110571F5209709F4D6DB8DDC8091A70403
:1017E00090E009D868EC70E080E090E05AD821964B
:1017F000D093AB02C093AA0238C02A97C9F408322A
:101800001105B4F40115110509F4BDDB74DC8091F8
:10181000A80490E00E94FB0368EC70E080E090E098
:1018200040D80F5F1F4F1093A9020093A8021DC05C
:1018300008321105D1F4A7DB1092AD021092AC0270
:101840001092AB021092AA021092A9021092A80262
:101850000CC0A1DC8091AA0403C09DDC8091AB0484
:1018600090E00E94FB0301C005D80E94F9015DCE03
:101870000E9456026093EB027093EC028093ED029B
:101880009093EE020091E7021091E8022091E902A4
:101890003091EA02601771078207930740F4609362
:1018A000E7027093E8028093E9029093EA020091C4
:1018B000E7021091E8022091E9023091EA022B013F
:1018C0003C01401A510A620A730A930182010A3FDD
:1018D00011052105310508F46FCE6093E70270937E
:1018E000E8028093E9029093EA020E945602009176
:1018F000B1021091B2022091B3023091B402DC0126
:10190000CB01801B910BA20BB30BC297A105B105B4
:1019100008F01BCE63E070E080E090E00E9451048C
:10192000E4CF8091E1029091E202DC01ED91FC9123
:101930000480F581E02D1995892B99F38091E102BE
:101940009091E202DC01ED91FC910480F581E02DA3
:101950001995181619060CF02FCE8091E10290917E
:10196000E202DC01ED91FC910680F781E02D1995F2
:1019700099278336910551F08637910509F41CCEDD
:1019800088359105D9F61092B502D8CF65E472E09A
:101990008091E1029091E2024EDC2AE041E050E0C9
:1019A00060E070E08091E1029091E20259DC6CE429
:1019B00072E08091E1029091E2023DDC62E370E02E
:1019C00080E090E00E945104F7CD10925A031092EB
:1019D000590388EE93E0A0E0B0E080935B0390931E
:1019E0005C03A0935D03B0935E0324E032E0309388
:1019F00058032093570325EC30E030936403209381
:101A0000630324EC30E0309366032093650320ECFD
:101A100030E0309368032093670321EC30E030938B
:101A20006A032093690322EC30E030936C03209327
:101A30006B0326EC30E030936E0320936D0310921D
:101A4000700310927103109272031092730310923C
:101A5000CE041092CD048093CF049093D004A09331
:101A6000D104B093D20484E192E09093CC048093AB
:101A7000CB041092F7031092F6031092F503109224
:101A8000F40324D981E590E09093C9048093C804BD
:101A9000ECEFF3E01082719684E0E63AF807D1F7B4
:101AA00015D91092F9031092F8031092FB031092CB
:101AB000FA030895AA1BBB1B51E107C0AA1FBB1F55
:101AC000A617B70710F0A61BB70B881F991F5A95CA
:101AD000A9F780959095BC01CD01089597FB072E3D
:101AE00016F4009406D077FD08D0E4DF07FC05D09B
:101AF0003EF4909581959F4F0895709561957F4F25
:101B00000895EE0FFF1F881F8BBF0790F691E02D01
:101B1000199481E090E0F89422C0A1E21A2EAA1B49
:101B2000BB1BFD010DC0AA1FBB1FEE1FFF1FA2178D
:101B3000B307E407F50720F0A21BB30BE40BF50B8A
:101B4000661F771F881F991F1A9469F76095709513
:101B5000809590959B01AC01BD01CF010895F8944B
:021B6000FFCFB5
:101B6200000000009201DF065C013A014E01D8013B
:101B720000000000EF02C002B802A4029502940223
:101B8200564D4450565F317C315F564D4450560D90
:101B92000A00564D4450455F31007C005F564D446B
:101BA20050450D0A00564D4450435F005F564D4468
:061BB20050430D0A000083
:00000001FF
